:100000000C9435000C945D000C945D000C945D0024
:100010000C945D000C945D000C945D000C945D00EC
:100020000C945D000C945D000C945D000C945D00DC
:100030000C945D000C945D000C945D000C945D00CC
:100040000C94B0030C945D000C948D040C94DB04B0
:100050000C945D000C945D000C945D000C945D00AC
:100060000C945D000C945D00490611241FBECFEF77
:10007000D8E0DEBFCDBF11E0A0E0B1E0E4EFF2E1F7
:1000800002C005900D92A437B107D9F712E0A4E79A
:10009000B1E001C01D92A832B107E1F710E0CAE655
:1000A000D0E004C02297FE010E947409C836D1072F
:1000B000C9F70E940B080C945F000C940000F894A0
:1000C0000C947809AEE0B0E0E8E6F0E00C94490961
:1000D0000D891E8986E08C831A8309838FEF9FE741
:1000E0009E838D839E01275E3F4FCE0101966F89CF
:1000F000788DA9010E9486002F813885020F131F79
:10010000F80110822E96E4E00C946509ABE0B0E0B3
:10011000ECE8F0E00C943B093C012B015A01FC0196
:1001200017821682838181FD03C06FEF7FEFC6C106
:100130009AE0892E1E010894211C311CF3012381B1
:10014000F20123FD859123FF81912F01882309F47A
:10015000B2C1853239F423FD859123FF81912F01AE
:10016000853229F490E0B3010E947902E7CF982FFD
:10017000FF24EE249924FFE1FF15D0F09B3269F0B3
:100180009C3228F4903259F0933291F40EC09D3293
:1001900049F0903369F441E024C052E0F52A84E04C
:1001A000F82A28C098E0F92A25C0E0E1FE2A22C0FA
:1001B000F7FC29C0892F80538A3070F4F6FE05C001
:1001C000989C902C1124980E15C0E89CE02C1124CA
:1001D000E80EF0E2FF2A0EC09E3229F4F6FC6BC155
:1001E00040E4F42A07C09C3619F450E8F52A02C00E
:1001F000983649F4F20123FD959123FF91912F0147
:10020000992309F0B8CF892F8554833018F0805294
:10021000833038F444E050E0A40EB51E5FE3598308
:100220000FC0933631F0933779F0933509F056C00B
:1002300020C0F5018081898342E050E0A40EB51E04
:10024000610101E010E012C0F501C080D180F6FC30
:1002500003C06FEF7FEF02C0692D70E042E050E015
:10026000A40EB51EC6010E946E028C015FE7F52246
:1002700014C0F501C080D180F6FC03C06FEF7FEFA2
:1002800002C0692D70E042E050E0A40EB51EC60128
:100290000E9463028C0150E8F52AF3FE07C01AC0E1
:1002A00080E290E0B3010E947902EA948E2D90E002
:1002B00008171907A8F30EC0F601F7FC8591F7FEA1
:1002C00081916F0190E0B3010E947902E110EA94FC
:1002D000015010400115110579F7EAC0943611F06C
:1002E000993669F5F7FE08C0F50120813181428118
:1002F000538184E090E00AC0F501808191819C01E6
:10030000442737FD4095542F82E090E0A80EB91E97
:100310009FE6F92257FF09C05095409530952195E9
:100320003F4F4F4F5F4FE0E8FE2ACA01B901A101DC
:100330002AE030E00E94A502D82ED21840C095379E
:1003400029F41F2D1F7E2AE030E01DC01F2D197FCC
:100350009F3661F0903720F4983509F0ACC00FC09B
:10036000903739F0983709F0A6C004C028E030E093
:100370000AC0106114FD146020E130E004C014FDD7
:10038000166020E132E017FF08C0F501608171813D
:100390008281938144E050E008C0F5018081918121
:1003A000BC0180E090E042E050E0A40EB51EA10147
:1003B0000E94A502D82ED2188FE7F82EF122F6FE61
:1003C0000BC05EEFF522D91438F4F4FE07C0F2FC3E
:1003D00005C08FEEF82202C01D2D01C0192DF4FEBC
:1003E0000DC0FE01ED0DF11D8081803319F499EEF1
:1003F000F92208C01F5FF2FE05C003C08F2D86786A
:1004000009F01F5F0F2DF3FC14C0F0FE0FC01E1586
:1004100010F09D2C0BC09D2C9E0C911A1E2D06C019
:1004200080E290E0B3010E9479021F5F1E15C0F3C5
:1004300004C01E1510F4E11A01C0EE2404FF0FC021
:1004400080E390E0B3010E94790202FF1DC001FD2C
:1004500003C088E790E00EC088E590E00BC0802FD5
:10046000867891F001FF02C08BE201C080E2F7FCC8
:100470008DE290E0B3010E94790206C080E390E033
:10048000B3010E9479029A94D914C0F3DA94F1016D
:10049000ED0DF11D808190E0B3010E947902DD2015
:1004A000A9F706C080E290E0B3010E947902EA94C5
:1004B000EE20C1F743CEF30166817781CB012B9605
:1004C000E2E10C945709FC01059061507040011065
:1004D000D8F7809590958E0F9F1F0895FC0161506D
:1004E000704001900110D8F7809590958E0F9F1F56
:1004F00008950F931F93CF93DF938C01EB018B81B2
:1005000081FF1BC082FF0DC02E813F818C819D81A8
:100510002817390764F4E881F9810193F983E883A6
:1005200006C0E885F985802F0995892B31F48E81E5
:100530009F8101969F838E8302C00FEF1FEFC8013A
:10054000DF91CF911F910F910895FA01AA272830CA
:1005500051F1203181F1E8946F936E7F6E5F7F4F90
:100560008F4F9F4FAF4FB1E03ED0B4E03CD0670F0C
:10057000781F891F9A1FA11D680F791F8A1F911D5F
:10058000A11D6A0F711D811D911DA11D20D009F4AF
:1005900068943F912AE0269F11243019305D3193F1
:1005A000DEF6CF010895462F4770405D4193B3E0DA
:1005B0000FD0C9F7F6CF462F4F70405D4A3318F081
:1005C000495D31FD4052419302D0A9F7EACFB4E032
:1005D000A6959795879577956795BA95C9F70097EA
:1005E0006105710508959B01AC010A2E069457958B
:1005F000479537952795BA95C9F7620F731F841FE2
:10060000951FA01D08950895CF92DF92EF92FF925B
:100610000F931F93DF93CF93CDB7DEB72A970FB613
:10062000F894DEBF0FBECDBF00E010E07E0108945D
:10063000E11CF11C80E0C82E81E0D82E87E292E018
:10064000B8010E941A082DB73EB7285030400FB6A7
:10065000F8943EBF0FBE2DBFEDB7FEB73196ADB7D4
:10066000BEB71296FC92EE921197D382C282158386
:100670000483868317820E9462002DB73EB7285FED
:100680003F4F0FB6F8943EBF0FBE2DBF85E092E0FE
:10069000B7010E94F8070F5F1F4F0131110571F676
:1006A0002A960FB6F894DEBF0FBECDBFCF91DF9173
:1006B0001F910F91FF90EF90DF90CF9008950F93CF
:1006C0001F93DF93CF9300D000D00F92CDB7DEB74A
:1006D00085E092E040E052EC61E070E00E94160597
:1006E00064E670E080E090E00E94F8030E9404035A
:1006F0008E010F5F1F4FC80161E00E94340885E042
:1007000092E06BE071E00E94F507C8010E942D089D
:10071000882329F085E092E06CE171E004C085E077
:1007200092E061E271E00E94F80785E092E065E204
:1007300071E00E94F507CE0101960E943008BC01CD
:1007400085E092E04AE050E00E94D6070F900F90BB
:100750000F900F900F90CF91DF911F910F910895FF
:100760001F920F920FB60F9211242F933F938F93E6
:100770009F93AF93BF938091780190917901A0915D
:100780007A01B0917B0130917C010196A11DB11DD0
:10079000232F2D5F2D3720F02D570196A11DB11D60
:1007A00020937C018093780190937901A0937A0142
:1007B000B0937B018091740190917501A0917601B5
:1007C000B09177010196A11DB11D809374019093A2
:1007D0007501A0937601B0937701BF91AF919F917E
:1007E0008F913F912F910F900FBE0F901F901895F2
:1007F0009B01AC017FB7F8948091740190917501D1
:10080000A0917601B091770166B5A89B05C06F3FB6
:1008100019F00196A11DB11D7FBFBA2FA92F982FE6
:100820008827860F911DA11DB11D62E0880F991FB9
:10083000AA1FBB1F6A95D1F7BC012DC0FFB7F89462
:100840008091740190917501A0917601B09177012A
:10085000E6B5A89B05C0EF3F19F00196A11DB11D9B
:10086000FFBFBA2FA92F982F88278E0F911DA11D8A
:10087000B11DE2E0880F991FAA1FBB1FEA95D1F7AF
:10088000861B970B885E9340C8F221503040404051
:10089000504068517C4F211531054105510571F6D5
:1008A0000895789484B5826084BD84B5816084BDE8
:1008B00085B5826085BD85B5816085BDEEE6F0E0D9
:1008C000808181608083E1E8F0E010828081826035
:1008D0008083808181608083E0E8F0E080818160B6
:1008E0008083E1EBF0E0808184608083E0EBF0E0E6
:1008F000808181608083EAE7F0E08081846080838A
:100900008081826080838081816080838081806833
:1009100080831092C100089508951F920F920FB620
:100920000F9211242F933F934F938F939F93EF93A5
:10093000FF938091C00082FD1DC04091C6002091B0
:10094000BD013091BE012F5F3F4F2F7330708091FA
:10095000BF019091C0012817390771F0E091BD01E6
:10096000F091BE01E358FE4F40833093BE012093C7
:10097000BD0102C08091C600FF91EF919F918F91C0
:100980004F913F912F910F900FBE0F901F90189590
:10099000E0911102F0911202E05CFF4F8191919180
:1009A00020813181821B930B8F739070892B11F002
:1009B0000E948C0408951F920F920FB60F9211247B
:1009C0002F933F938F939F93EF93FF932091010277
:1009D0003091020280910302909104022817390796
:1009E00031F48091C1008F7D8093C10014C0E091EB
:1009F0000302F0910402EF53FE4F20818091030225
:100A00009091040201968F739070909304028093EA
:100A100003022093C600FF91EF919F918F913F9128
:100A20002F910F900FBE0F901F901895AF92BF920D
:100A3000DF92EF92FF920F931F93CF93DF93EC011E
:100A40007A018B01DD24403081EE580780E0680791
:100A500080E0780711F0DD24D39491E0A92EB12C29
:100A6000EC89FD89DD2069F0C50108A002C0880F6E
:100A7000991F0A94E2F7808360E079E08DE390E0CB
:100A800005C0108260E874E88EE190E0A80197014B
:100A90000E941909215030404040504056954795DA
:100AA0003795279580E12030380720F0DD2011F0C0
:100AB000DD24D6CFE889F9893083EA89FB89208350
:100AC00019A2EE89FF89408121E030E0C9010C8C38
:100AD00002C0880F991F0A94E2F7482B4083EE89E1
:100AE000FF894081C9010D8C02C0880F991F0A94AB
:100AF000E2F7482B4083EE89FF894081C9010E8CC3
:100B000002C0880F991F0A94E2F7482B4083EE89B0
:100B1000FF8980810F8C02C0220F331F0A94E2F7F5
:100B2000209528232083DF91CF911F910F91FF9073
:100B3000EF90DF90BF90AF900895DC011C96ED918F
:100B4000FC911D97E05CFF4F219131918081918153
:100B5000281B390B2F733070C9010895DC011C96D6
:100B6000ED91FC911D97E05CFF4F20813181E054B5
:100B7000F040DF01AE5BBF4F8D919C91119728171C
:100B8000390719F42FEF3FEF07C08D919C91E80FC3
:100B9000F91F8081282F30E0C9010895DC011C96DF
:100BA000ED91FC911D97E05CFF4F20813181E05475
:100BB000F040DF01AE5BBF4F8D919C9111972817DC
:100BC000390719F42FEF3FEF10C08D919C911197C9
:100BD000E80FF91F20818D919C91119701968F73D9
:100BE000907011969C938E9330E0C9010895DC01BA
:100BF00091968C919197882339F05496ED91FC91C0
:100C00005597808186FFF9CF91961C920895CF93D6
:100C1000DF93EC01EE85FF85E05CFF4F20813181A1
:100C2000E054F0402F5F3F4F2F733070DF01AE5B19
:100C3000BF4F8D919C91119728173907D1F3E05C34
:100C4000FF4F80819181E054F040E80FF91F6083ED
:100C5000EE85FF85E05CFF4F31832083EE89FF89BD
:100C6000208181E090E00F8C02C0880F991F0A94C8
:100C7000E2F7282B208381E089A3EC89FD8980811C
:100C80008064808381E090E0DF91CF91089581E0DE
:100C90000895109208021092070288EE93E0A0E0F7
:100CA000B0E08093090290930A02A0930B02B093E4
:100CB0000C0287E691E090930602809305028DE78F
:100CC00091E0909312028093110281EC91E0909355
:100CD00014028093130285EC90E0909316028093A7
:100CE000150284EC90E0909318028093170280EC38
:100CF00090E090931A028093190281EC90E0909317
:100D00001C0280931B0282EC90E090931E02809361
:100D10001D0286EC90E09093200280931F0284E0F5
:100D20008093210283E08093220287E08093230254
:100D300085E08093240281E0809325020895CF927C
:100D4000DF92EF92FF920F931F93CF93DF937C017B
:100D50006B018A01C0E0D0E00FC0D6016D916D013A
:100D6000D701ED91FC910190F081E02DC70109952B
:100D7000C80FD91F015010400115110571F7CE01A0
:100D8000DF91CF911F910F91FF90EF90DF90CF9067
:100D90000895EF92FF920F931F938C01DC01ED9168
:100DA000FC910190F081E02D6DE009957C01D80166
:100DB000ED91FC910190F081E02DC8016AE0099568
:100DC0009C012E0D3F1DC9011F910F91FF90EF90C7
:100DD0000895CF93DF93EC016115710519F420E0BC
:100DE00030E00FC0DB010D900020E9F71197A61B42
:100DF000B70BE881F9810280F381E02DAD010995FF
:100E00009C01C901DF91CF9108954F925F927F922B
:100E10008F929F92AF92BF92CF92DF92EF92FF920A
:100E20000F931F93DF93CF93CDB7DEB7A1970FB684
:100E3000F894DEBF0FBECDBF2C01742ECB01223043
:100E400008F42AE019A231E2C32ED12CCC0EDD1E0B
:100E5000822E9924AA24BB24672D752FA501940105
:100E60000E94190979018A01C801B701A5019401FD
:100E70000E94FA08472D461B0894C108D1084A3041
:100E800014F4405D01C0495CF6014083E114F104B3
:100E90000105110521F07E2C5F2DC801DDCFC201B7
:100EA000B6010E94E906A1960FB6F894DEBF0FBE08
:100EB000CDBFCF91DF911F910F91FF90EF90DF9009
:100EC000CF90BF90AF909F908F907F905F904F900A
:100ED0000895DC012115310541F4ED91FC9101905B
:100EE000F081E02D642F099508950E94050708956B
:100EF000CF92DF92EF92FF920F931F936C01E62E39
:100F00009A01FF2400E010E0B801A7010E946907E0
:100F10008C01C6010E94C906080F191FC8011F9144
:100F20000F91FF90EF90DF90CF900895CF92DF92D6
:100F3000EF92FF920F931F93CF93DF93EC016A011F
:100F40007B012115310541F4E881F9810190F0819F
:100F5000E02D642F09951FC02A303105D1F477FFA9
:100F600017C0E881F9810190F081E02D6DE20995CB
:100F70008C0144275527BA014C195D096E097F0978
:100F8000CE012AE00E9405079801280F391F04C0EE
:100F90002AE00E9405079C01C901DF91CF911F91B2
:100FA0000F91FF90EF90DF90CF900895CF92DF9256
:100FB000EF92FF920F931F936C017B019A01002720
:100FC000F7FC0095102FB801A7010E9496078C012D
:100FD000C6010E94C906080F191FC8011F910F9171
:100FE000FF90EF90DF90CF9008950E94E90608955A
:100FF000EF92FF920F931F937C010E94E9068C01F0
:10100000C7010E94C906080F191FC8011F910F913F
:10101000FF90EF900895CF93DF930E9451040E94B8
:101020005F03C8ECD4E00E9403032097E1F30E9421
:10103000C804F9CFF999FECF72BD61BDF89A80B5A9
:101040000895F999FECF1FBA72BD61BD40BD0FB6BC
:10105000F894FA9AF99A0FBE0895FC0184810895D4
:10106000FC018281938108956F927F928F929F926B
:10107000AF92BF92CF92DF92EF92FF920F931F93A6
:10108000DF93CF93CDB7DEB72E970FB6F894DEBFC0
:101090000FBECDBF3C014E010894811C911C740110
:1010A00060E070E095E0C92ED12CCC0EDD1E80E30F
:1010B000A82E81E0B82E8B010F5F1F4F87E292E0D0
:1010C0000E941A08D7018D937D0100D000D000D076
:1010D000EDB7FEB73196ADB7BEB71296DC92CE92A1
:1010E0001197B382A282F582E4820E946200EDB77A
:1010F000FEB736960FB6F894FEBF0FBEEDBF85E083
:1011000092E0B6010E94F807B8010430110599F683
:1011100085E092E00E944706882311F185E092E085
:101120006AE371E00E94F80785E092E069E471E00B
:101130000E94F50769817A8185E092E04AE050E0FB
:101140000E94D60785E092E06FE471E00E94F50707
:101150006B817C8185E092E04AE050E00E94D607F6
:1011600089819A818F5F9F4F49F581E090E09A8352
:10117000898382E090E09C838B83740100E010E01F
:1011800087E292E0B801D7014C910E94210885E0E6
:1011900092E069E571E00E94F507F701618182E064
:1011A00090E0E80EF91E85E092E04AE050E00E94EF
:1011B00078070F5F1F4F0430110511F789819A815D
:1011C000D30113969C938E9312972E960FB6F89494
:1011D000DEBF0FBECDBFCF91DF911F910F91FF906A
:1011E000EF90DF90CF90BF90AF909F908F907F90C7
:1011F0006F900895629FD001739FF001829FE00D70
:10120000F11D649FE00DF11D929FF00D839FF00D85
:10121000749FF00D659FF00D9927729FB00DE11D31
:10122000F91F639FB00DE11DF91FBD01CF0111240E
:101230000895A1E21A2EAA1BBB1BFD010DC0AA1F17
:10124000BB1FEE1FFF1FA217B307E407F50720F02F
:10125000A21BB30BE40BF50B661F771F881F991FAA
:101260001A9469F760957095809590959B01AC01F3
:10127000BD01CF0108952F923F924F925F926F92DE
:101280007F928F929F92AF92BF92CF92DF92EF9216
:10129000FF920F931F93CF93DF93CDB7DEB7CA1B97
:1012A000DB0B0FB6F894DEBF0FBECDBF09942A88C2
:1012B000398848885F846E847D848C849B84AA846A
:1012C000B984C884DF80EE80FD800C811B81AA81F7
:1012D000B981CE0FD11D0FB6F894DEBF0FBECDBFC2
:1012E000ED010895EE0FFF1F0590F491E02D099494
:0412F000F894FFCFA0
:1012F400253033583A202530325800416D2049209A
:10130400746865206D61737465723F00205965735C
:1013140000204E6F004D792049442069733A200023
:10132400526561642025303258004C6F61646564F5
:1013340020494420496E666F002049443A20002029
:101344004E65787449443A200057726974696E672F
:101354003A20000000000007069F069D05CE05AE5A
:0413640005F7050084
:00000001FF
